:1000000021C045C044C0CFC142C041C040C03FC074
:100010003EC03DC03CC03BC03AC039C038C0000003
:100020000000370000000000380001030000040059
:10003000000000003600020202020202010204086F
:1000400010206C0211241FBECFE5D1E0DEBFCDBF72
:1000500010E0A0E6B0E0EAEAF5E002C005900D92FB
:10006000A236B107D9F720E0A2E6B0E001C01D92A8
:10007000AF36B207E1F710E0C2E2D0E003C021974B
:10008000FE018BD2C132D107D1F7F6D18CC2B8CFE5
:1000900089B78B7989BF10BE8CB581788CBD1FBCA8
:1000A0001EBC1BBC1DBC89B78B7989BF84E688BF89
:1000B00080E48CBD8FEF8DBD87EC80BFE0916D003B
:1000C000F0916E00309731F080916C0090818095B6
:1000D000892380838FEF80936000089587FF09C094
:1000E0008F7701F1813001F1823001F1833001F12C
:1000F0008FEF90E0FC01E45CFF4F2491FC01EA5C8F
:10010000FF4FE491EE23B1F0F0E0EE0FFF1FE05D52
:10011000FF4FA591B491EC91E22381E090E061F46E
:1001200080E0089585E0E5CF82E0E3CF84E0E1CF91
:1001300083E0DFCF80E090E0089590E0FC01E65D91
:10014000FF4F3491FC01E45CFF4F2491FC01EA5C19
:10015000FF4FE491EE23B9F0332329F03130A1F4BD
:100160008AB58F778ABDF0E0EE0FFF1FEC5DFF4F81
:10017000A591B4918FB7611118C0F894EC912095B6
:100180002E232C938FBF0895323019F48AB58F7DBA
:10019000E9CF333021F480B78F7D80BFE4CF343096
:1001A00011F78CB58F7D8CBDDECFF894EC912E2BA2
:1001B000E8CFCF93DF9387FD85E090E0FC01E45C1E
:1001C000FF4F24918A5C9F4FFC0184918823C9F0E2
:1001D00090E0880F991FFC01E25EFF4FA591B4915A
:1001E000FC01EC5DFF4FC591D49161110DC09FB72B
:1001F000F8948C91209582238C93888128232883DE
:100200009FBFDF91CF910895623051F49FB7F8946A
:100210003C91822F809583238C93E8812E2BEFCF06
:100220008FB7F894EC912E2B2C938FBFEACFCF92FF
:10023000DF92EF92FF92F62E60E081E07EDF6F2D7D
:1002400082E07BDF17B887B187B9369A3699FECF3F
:1002500084B165B1762F682F072E000C880B990B9F
:100260002FE235E740E050E041D12FEF33E040E0AE
:1002700050E055D169017A018FEFC81AD80AE80A0F
:10028000F80A0D2C000CEE08FF0880916000811127
:100290000EC04091620050916300609164007091C3
:1002A0006500C416D506E606F70609F46AC0C092D2
:1002B0006200D0926300E0926400F09265008F3F8C
:1002C00021F510BE8CB581788CBD1FBC1EBC1BBC3B
:1002D0001DBC89B78B7989BF88B7846688BF80E8E1
:1002E00080BF88E390E090936E0080936D0081E082
:1002F00080936C0080B78F7C80BF8CB58F7C8CBD69
:1003000061E080E056DF1092600080916000811112
:1003100038C080B7807F80BF1FBCC114D104E10406
:10032000F104A1F160E079E08DE390E0A70196018E
:1003300012D181E02F3F31054105510549F040F0D0
:100340008F3031F08F5F5695479537952795F2CFCF
:100350009FEF920F9DBD21503109410951092EBDDA
:100360004FEF5FEFBA0140936800509369006093CC
:100370006A0070936B0099B7906499BF90B7892B0E
:1003800080BFFF90EF90DF90CF90089589B7806491
:1003900089BF89B78B7989BF60E080E0FF90EF90DB
:1003A000DF90CF90CACE1F920F920FB60F921124FA
:1003B0002F933F934F935F936F937F938F939F936D
:1003C000AF93BF93EF93FF93809168009091690082
:1003D000A0916A00B0916B00892B8A2B8B2B61F165
:1003E0008091680090916900A0916A00B0916B00C3
:1003F000181619061A061B06ACF580916800909134
:100400006900A0916A00B0916B000197A109B10940
:100410008093680090936900A0936A00B0936B008A
:100420008091680090916900A0916A00B0916B0082
:10043000892B8A2B8B2BB1F4809160008F3F09F0C0
:1004400027DEFF91EF91BF91AF919F918F917F91A7
:100450006F915F914F913F912F910F900FBE0F9031
:100460001F90189590916C00E0916D00F0916E00D6
:10047000808189278083E5CFCF93DF931F92CDB70B
:10048000DEB783E08ABD83BF789480E48CBD8FEFB4
:100490008DBD87EC80BF86E886B960E080E889DEA4
:1004A00061E080E086DE61E082E083DE61E081E0A1
:1004B00080DE8091670012DE60E0892B49F0809138
:1004C00066000CDE61E0892B19F081E036DEF1CFA9
:1004D000CE010196ACDEEDCF83E08093670062E051
:1004E00068DE84E08093660062E063CEEE27FF273B
:1004F000AA27BB2708C0A20FB31FE41FF51F220FB6
:10050000331F441F551F969587957795679598F3E8
:100510007040A9F7009799F7BD01CF010895052E06
:1005200097FB16F400940FD057FD05D014D007FCAC
:1005300002D046F408C050954095309521953F4F24
:100540004F4F5F4F089590958095709561957F4FBF
:100550008F4F9F4F0895A1E21A2EAA1BBB1BFD01CE
:100560000DC0AA1FBB1FEE1FFF1FA217B307E40792
:10057000F50720F0A21BB30BE40BF50B661F771FEA
:10058000881F991F1A9469F76095709580959095CA
:100590009B01AC01BD01CF010895EE0FFF1F059037
:0A05A000F491E02D0994F894FFCFC8
:0205AA00FF0050
:00000001FF
